:100000000C9462000C948A000C948A000C948A0070
:100010000C948A000C948A000C948A000C948A0038
:100020000C948A000C948A000C948A000C948A0028
:100030000C948A000C948A000C948A000C948A0018
:100040000C9470020C948A000C9436020C94FB0100
:100050000C948A000C948A000C948A000C948A00F8
:100060000C948A000C948A000000000024002700F1
:100070002A000000000023002600290000000000E4
:10008000250028002B0004040404040404040202D4
:100090000202020203030303030301020408102007
:1000A0004080010204081020010204081020000012
:1000B0000007000201000003040600000000000029
:1000C0000000BA0211241FBECFEFD8E0DEBFCDBFC3
:1000D00011E0A0E0B1E0ECE6FBE002C005900D927B
:1000E000A031B107D9F721E0A0E1B1E001C01D9234
:1000F000A93CB207E1F710E0C2E6D0E004C02197C6
:10010000FE010E949F05C136D107C9F70E94F50282
:100110000C9460040C940000E6EBF0E02491E2EA19
:10012000F0E09491EEE8F0E0E491EE2309F43BC0B6
:10013000222339F1233091F038F42130A9F0223014
:1001400001F524B52F7D12C0263091F02730A1F0A3
:100150002430B9F4209180002F7D03C020918000CD
:100160002F77209380000DC024B52F7724BD09C0C0
:100170002091B0002F7703C02091B0002F7D2093F5
:10018000B000F0E0EE0FFF1FE458FF4FA591B491CF
:100190002FB7F894EC91811103C090959E2301C074
:1001A0009E2B9C932FBF0895CF92DF92EF92FF92E8
:1001B0000F931F93CF93DF936C01EB017B01E40E50
:1001C000F51E00E010E0CE15DF0561F06991D60163
:1001D000ED91FC910190F081E02DC6010995080F89
:1001E000191FF1CFC801DF91CF911F910F91FF909F
:1001F000EF90DF90CF90089508950F931F93CF93C2
:10020000DF93FC01A685B7858D01005C1F4FE801D7
:100210008881998101968F739927AD014E5B5F4F5D
:10022000EA012881398182179307D1F3E8012881F7
:100230003981A20FB31F6C93A685B785A05CBF4F11
:1002400011969C938E93A689B7892C9181E090E0BA
:10025000078C02C0880F991F0A94E2F7822B8C93B7
:1002600081E081A30488F589E02D8081806480830A
:1002700081E090E0DF91CF911F910F910895FC01F3
:1002800081A1882329F0A489B5898C9186FFFBCFB1
:1002900011A20895FC01A485B585FD01E05CFF4F26
:1002A000208131813296808191812817390779F038
:1002B00080819181A80FB91F8C91208131812F5F9E
:1002C0003F4F2F7333273183208390E008958FEFC2
:1002D0009FEF0895DC011C96ED91FC911D97DF01C5
:1002E000A05CBF4F2D913C91119712968D919C91DE
:1002F00011972817390739F08D919C91E80FF91F54
:10030000808190E008958FEF9FEF0895FC01248590
:100310003585F901E05CFF4F808191813296208123
:100320003181821B930B8F739927089587EA91E09F
:100330000C948601CF93DF9390E0FC01E656FF4FCB
:100340002491FC01EA57FF4F8491882361F190E0EA
:10035000880F991FFC01E859FF4FC591D491FC010A
:10036000E458FF4FA591B491611109C09FB7F8946B
:100370008881209582238883EC912E230BC06230E4
:1003800061F49FB7F8943881822F80958323888306
:10039000EC912E2B2C939FBF06C08FB7F894E88169
:1003A0002E2B28838FBFDF91CF9108953FB7F8940C
:1003B0008091150190911601A0911701B09118013B
:1003C00026B5A89B05C02F3F19F00196A11DB11DB0
:1003D0003FBFBA2FA92F982F8827820F911DA11DEB
:1003E000B11DBC01CD0142E0660F771F881F991F28
:1003F0004A95D1F708951F920F920FB60F921124CC
:100400002F933F938F939F93EF93FF9320915F01DF
:100410003091600180916101909162012817390744
:1004200031F48091C1008F7D8093C10014C0E091B0
:100430006101F0916201E15EFE4F208180916101D6
:100440009091620101968F73992790936201809336
:1004500061012093C600FF91EF919F918F913F9191
:100460002F910F900FBE0F901F9018951F920F9213
:100470000FB60F9211242F934F935F938F939F93F7
:10048000EF93FF938091C00082FD1CC02091C600B5
:100490008091A3019091A40101968F7399274091B7
:1004A000A5015091A6018417950771F0E091A30171
:1004B000F091A401ED59FE4F20839093A401809305
:1004C000A30102C08091C600FF91EF919F918F918F
:1004D0005F914F912F910F900FBE0F901F90189525
:1004E0001F920F920FB60F9211242F933F938F9369
:1004F0009F93AF93BF938091110190911201A091AE
:100500001301B09114013091100123E0230F2D3716
:1005100020F40196A11DB11D05C026E8230F029607
:10052000A11DB11D20931001809311019093120120
:10053000A0931301B09314018091150190911601BD
:10054000A0911701B09118010196A11DB11D8093D2
:10055000150190931601A0931701B0931801BF9154
:10056000AF919F918F913F912F910F900FBE0F9060
:100570001F901895E7EAF1E01382128288EE93E06B
:10058000A0E0B0E084839583A683B78384E091E004
:100590009183808383E691E0958784878FE191E062
:1005A0009787868785EC90E0918B808B84EC90E038
:1005B000938B828B80EC90E0958B848B81EC90E028
:1005C000978B868B82EC90E0918F808F86EC90E009
:1005D000938F828F84E0848F83E0858F87E0868F7E
:1005E00085E0878F81E080A30895789484B5826048
:1005F00084BD84B5816084BD85B5826085BD85B5C7
:10060000816085BD80916E00816080936E00109244
:1006100081008091810082608093810080918100BF
:100620008160809381008091800081608093800050
:100630008091B10084608093B1008091B0008160AE
:100640008093B00080917A00846080937A008091DA
:100650007A00826080937A0080917A008160809332
:100660007A0080917A00806880937A001092C100AD
:1006700060E087E00E949A0160E08EE00E949A01AB
:1006800061E088E00E949A01E091BB01F091BC0119
:1006900081E090E09C010090C70102C0220F331F4F
:1006A0000A94E2F72083E091B701F091B80121E0CC
:1006B0002083E091B901F091BA0120EA20831092E1
:1006C000C801E091BD01F091BE0140819C01009004
:1006D000C30102C0220F331F0A94E2F7242B2083A8
:1006E000E091BD01F091BE0140819C010090C401E8
:1006F00002C0220F331F0A94E2F7242B2083E091DB
:10070000BD01F091BE0140819C010090C50102C075
:10071000220F331F0A94E2F7242B2083E091BD01BE
:10072000F091BE0120810090C60102C0880F991F80
:100730000A94E2F7809582238083C2E0D0E002E24F
:1007400010E041EAE42E40E0F42E5DE8C52E50E0D2
:10075000D52E60E4862E62E4962E6FE0A62EB12C94
:1007600080E00E948C00CE010197F1F781E00E94A9
:100770008C00C8010197F1F780E00E948C00F7011E
:100780003490F601849190E0880F991F8E589F4F06
:1007900040E050E0BA01FC01A591B4912C912321D5
:1007A000231117C04F5F5F4F6F4F7F4F4134F2E40B
:1007B0005F07FFE06F07710571F73FC04F5F5F4F45
:1007C0006F4F7F4F413422E452072FE062077105DB
:1007D000A1F1FC01A591B4912C9123212311EECF1D
:1007E00024013501441A550A660A770A20E030E0F0
:1007F000A901FC01A591B4916C91632163110AC018
:100800002415350546055705C1F02F5F3F4F4F4F63
:100810005F4FEFCFA5E1B0E00E949405DC01CB0172
:100820004096A11DB11DBC01CD0124E09695879590
:10083000779567952A95D1F703C060E070E0CB010A
:1008400060931B0170931C0180931D0190931E0106
:100850000E949B0426E933E44BE05DE30E94FF0421
:1008600020E030E040E05FE30E94FF040E94630468
:100870006093190170931A0187EA91E00E94FD00CC
:100880000E94D6013B0182E3282E312C412C512CB1
:100890000E94D60166197709683E734048F0E1E08E
:1008A0002E1A310841085108F8E16F1AFCEF7F0A4F
:1008B000211431044104510459F70E94960150CF8C
:1008C000F8940C94B4050E946A046894B1110C94D5
:1008D000F90408950E94DE0488F09F5798F0B92F1C
:1008E0009927B751B0F0E1F0660F771F881F991F65
:1008F0001AF0BA95C9F714C0B13091F00E94F8040B
:10090000B1E008950C94F804672F782F8827B85F1A
:1009100039F0B93FCCF3869577956795B395D9F7BC
:100920003EF490958095709561957F4F8F4F9F4FC6
:100930000895E89409C097FB3EF4909580957095D2
:1009400061957F4F8F4F9F4F9923A9F0F92F96E91B
:10095000BB279395F695879577956795B795F11190
:10096000F8CFFAF4BB0F11F460FF1BC06F5F7F4F2D
:100970008F4F9F4F16C0882311F096E911C077233F
:1009800021F09EE8872F762F05C0662371F096E848
:10099000862F70E060E02AF09A95660F771F881F17
:1009A000DAF7880F9695879597F9089557FD90582F
:1009B000440F551F59F05F3F71F04795880F97FB23
:1009C000991F61F09F3F79F08795089512161306DD
:1009D0001406551FF2CF4695F1DF08C0161617060C
:1009E0001806991FF1CF8695710561050894089541
:1009F000E894BB2766277727CB0197F908950E94D3
:100A000012050C9483050E94750538F00E947C0540
:100A100020F0952311F00C946C050C9472051124B0
:100A20000C94F9040E94D60470F3959FC1F3950FBE
:100A300050E0551F629FF001729FBB27F00DB11D62
:100A4000639FAA27F00DB11DAA1F649F6627B00DF2
:100A5000A11D661F829F2227B00DA11D621F739FDB
:100A6000B00DA11D621F839FA00D611D221F749FE9
:100A70003327A00D611D231F849F600D211D822F30
:100A8000762F6A2F11249F5750409AF0F1F0882357
:100A90004AF0EE0FFF1FBB1F661F771F881F915084
:100AA0005040A9F79E3F510580F00C946C050C94C2
:100AB000F9045F3FE4F3983ED4F386957795679504
:100AC000B795F795E7959F5FC1F7FE2B880F911DAE
:100AD0009695879597F9089597F99F6780E870E054
:100AE00060E008959FEF80EC089500240A941616A4
:100AF000170618060906089500240A94121613060C
:100B0000140605060895092E0394000C11F4882399
:100B100052F0BB0F40F4BF2B11F460FF04C06F5FB5
:100B20007F4F8F4F9F4F08950E94A505A59F900D61
:100B3000B49F900DA49F800D911D11240895EE0F78
:100B4000FF1F0590F491E02D0994A29FB001B39F7F
:100B5000C001A39F700D811D1124911DB29F700DC6
:0C0B6000811D1124911D0895F894FFCF11
:100B6C0000000000FD00D40086014A016A013F012B
:00000001FF
