:100000000C9462000C948A000C948A000C948A0070
:100010000C948A000C948A000C948A000C948A0038
:100020000C948A000C948A000C948A000C948A0028
:100030000C948A000C948A000C948A000C948A0018
:100040000C940D010C948A000C94F6040C94390560
:100050000C948A000C948A000C948A000C948A00F8
:100060000C948A000C948A00000000070002010032
:100070000003040600000000000000000102040864
:100080001020408001020408102001020408102002
:10009000040404040404040402020202020203032E
:1000A00003030303000000002300260029000000D2
:1000B0000000250028002B0000000000240027007D
:1000C0002A00FC0511241FBECFEFD8E0DEBFCDBF54
:1000D00011E0A0E0B1E0EEE5FFE002C005900D9276
:1000E000A832B107D9F721E0A8E2B1E001C01D9222
:1000F000A33EB207E1F710E0C2E6D0E004C02197CA
:10010000FE010E949807C136D107C9F70E944F042B
:100110000C9437060C94000060E087E00E94C00257
:1001200060E08EE00E94C00261E088E00E94C002B0
:1001300040E855E260E070E089E391E00C947405DA
:1001400060E088E00E94FC0282E090E00E94A20150
:1001500061E088E00E94FC028AE090E00E94A20137
:1001600060E088E00E94FC0220E432E44FE050E0CE
:1001700061E087E00E94E70160932C0170932D01FC
:1001800080932E0190932F018EE00E947A0290932B
:1001900029018093280161E071E089E391E00E94E8
:1001A000860360912801709129014AE050E089E3BB
:1001B00091E00E94380460912C0170912D01809192
:1001C0002E0190912F010E94720626E933E44BE044
:1001D0005DE30E94FE0620E030E040E05FE30E9425
:1001E000FE060E943A0670932B0160932A016DE08F
:1001F00071E089E391E00E94690360912A017091A6
:100200002B014AE050E089E391E00E94380464E663
:1002100070E080E090E00C947C011F920F920FB68A
:100220000F9211242F933F938F939F93AF93BF937C
:100230008091310190913201A0913301B09134014C
:100240003091300123E0230F2D3720F40196A11DBA
:10025000B11D05C026E8230F0296A11DB11D2093F4
:1002600030018093310190933201A0933301B09318
:1002700034018091350190913601A0913701B09100
:1002800038010196A11DB11D80933501909336016F
:10029000A0933701B0933801BF91AF919F918F9197
:1002A0003F912F910F900FBE0F901F9018953FB761
:1002B000F8948091350190913601A0913701B09169
:1002C000380126B5A89B05C02F3F19F00196A11D46
:1002D000B11D3FBFBA2FA92F982F8827820F911DDC
:1002E000A11DB11DBC01CD0142E0660F771F881F23
:1002F000991F4A95D1F70895CF92DF92EF92FF921E
:10030000CF93DF936B017C010E945701EB01C11475
:10031000D104E104F10479F00E9457016C1B7D0BBC
:10032000683E7340A0F381E0C81AD108E108F108E3
:10033000C851DC4FECCFDF91CF91FF90EF90DF9071
:10034000CF900895019739F0880F991F880F991F52
:1003500002970197F1F70895789484B5826084BD7F
:1003600084B5816084BD85B5826085BD85B58160B9
:1003700085BDEEE6F0E0808181608083E1E8F0E019
:100380001082808182608083808181608083E0E848
:10039000F0E0808181608083E1EBF0E08081846027
:1003A0008083E0EBF0E0808181608083EAE7F0E029
:1003B000808184608083808182608083808181608D
:1003C00080838081806880831092C10008958F921D
:1003D0009F92AF92BF92CF92DF92EF92FF920F93D4
:1003E0001F93CF93DF9390E0FC01E458FF4FA4915B
:1003F000FC01E057FF4F8491662311F0BA2F01C032
:10040000B0E089019A013F7090E0880F991F8C55E8
:100410009F4F480159014FEF841A940AA40AB40A65
:10042000C12CD12C7601FC01C591D49168816A233D
:100430006B131AC05FEFC51AD50AE50AF50AC8148E
:10044000D904EA04FB0479F745C0460157016FEF70
:10045000861A960AA60AB60AC016D106E206F3065E
:1004600009F438C075016401FC01C591D49168811B
:100470006A236B13EACFB901A8014C195D096E0913
:100480007F096A017B0120E030E0A901FC01C591F0
:10049000D49168816A236B130AC02C153D054E0563
:1004A0005F05C1F02F5F3F4F4F4F5F4FEFCFA5E18B
:1004B000B0E00E948D07DC01CB014096A11DB11D6B
:1004C000BC01CD0124E096958795779567952A958F
:1004D000D1F703C060E070E0CB01DF91CF911F91B5
:1004E0000F91FF90EF90DF90CF90BF90AF909F90D3
:1004F0008F9008958E3008F08E5087702091000103
:1005000090E4299F90011124822B80937C0080919C
:100510007A00806480937A0080917A0086FDFCCF17
:10052000809178002091790090E0922B089583309B
:1005300081F028F4813099F08230A1F0089586305E
:10054000A9F08730B9F08430D1F4809180008F7D9C
:1005500003C0809180008F7780938000089584B5D8
:100560008F7702C084B58F7D84BD08958091B000DF
:100570008F7703C08091B0008F7D8093B000089585
:10058000CF93DF9390E0FC01E458FF4F2491FC01EE
:10059000E057FF4F8491882361F190E0880F991F05
:1005A000FC01E854FF4FC591D491FC01E255FF4F87
:1005B000A591B491611109C09FB7F89488812095E5
:1005C00082238883EC912E230BC0623061F49FB7A5
:1005D000F8943881822F809583238883EC912E2B89
:1005E0002C939FBF06C08FB7F894E8812E2B2883E9
:1005F0008FBFDF91CF9108951F93CF93DF93282F63
:1006000030E0F901E859FF4F8491F901E458FF4FB8
:10061000D491F901E057FF4FC491CC23C9F0162FB4
:1006200081110E949702EC2FF0E0EE0FFF1FE255C0
:10063000FF4FA591B4918FB7F894111105C09C910B
:10064000ED2FE095E92302C0EC91ED2BEC938FBFE9
:10065000DF91CF911F910895CF92DF92EF92FF9299
:100660000F931F93CF93DF936C01EB017B01E40E9B
:10067000F51E00E010E0CE15DF0561F06991D601AE
:10068000ED91FC910190F081E02DC6010995080FD4
:10069000191FF1CFC801DF91CF911F910F91FF90EA
:1006A000EF90DF90CF9008956115710579F0FB010F
:1006B00001900020E9F73197AF01461B570BDC0191
:1006C000ED91FC910280F381E02D099480E090E0AF
:1006D00008950C945403DC01ED91FC910190F0819C
:1006E000E02D09940F931F93CF93DF93EC016DE0FE
:1006F0000E946B038C016AE0CE010E946B03800FA5
:10070000911FDF91CF911F910F9108950F931F9328
:10071000CF93DF93EC010E9454038C01CE010E9421
:100720007203800F911FDF91CF911F910F91089558
:100730008F929F92AF92BF92CF92DF92EF92FF92F1
:100740000F931F93CF93DF93CDB7DEB7A1970FB66B
:10075000F894DEBF0FBECDBF6C01142FE52FCB0187
:10076000022F19A2223008F40AE07E0121E2E20EF3
:10077000F11C802E912CA12CB12C612F7E2FA50174
:1007800094010E946B07029F1019112481E0E81A5E
:10079000F1081A3014F4105D01C0195CF7011083E0
:1007A000122FE32FCA01232B242B252B31F7B7015E
:1007B000C6010E945403A1960FB6F894DEBF0FBE87
:1007C000CDBFDF91CF911F910F91FF90EF90DF9000
:1007D000CF90BF90AF909F908F900895CF92DF926F
:1007E000EF92FF920F931F93CF93DF93EC016A0177
:1007F0007B012115310579F4E881F9810190F081BF
:10080000E02D642FDF91CF911F910F91FF90EF901A
:10081000DF90CF9009942A303105E9F477FF1AC0B0
:100820006DE20E946B038C0144275527BA014C19D5
:100830005D096E097F092AE0CE010E949803800FAE
:10084000911FDF91CF911F910F91FF90EF90DF905B
:10085000CF9008952AE0B701A601CE01DF91CF9194
:100860001F910F91FF90EF90DF90CF900C94980321
:100870000F931F93CF93DF93EC019A01AB01770F96
:10088000660B770B0E94EE038C01CE010E9472036F
:10089000800F911FDF91CF911F910F9108950E94BA
:1008A000AC010E948C00C0E3D5E00E94A00020971C
:1008B000E1F30E943005F9CFFC0124853585F9016B
:1008C000E05CFF4F80819181329620813181821BD3
:1008D000930B8F7399270895DC011C96ED91FC9181
:1008E0001D97DF01A05CBF4F2D913C91119712968F
:1008F0008D919C9111972817390739F08D919C9112
:10090000E80FF91F808190E008958FEF9FEF089521
:10091000FC01A485B585FD01E05CFF4F208131819C
:100920003296808191812817390779F080819181F1
:10093000A80FB91F8C91208131812F5F3F4F2F73FA
:1009400033273183208390E008958FEF9FEF089540
:10095000FC0181A1882329F0A489B5898C9186FFA7
:10096000FBCF11A208950F931F93CF93DF93FC0148
:10097000A685B7858D01005C1F4FE80188819981AC
:1009800001968F739927AD014E5B5F4FEA01288175
:10099000398182179307D1F3E80128813981A20FA9
:1009A000B31F6C93A685B785A05CBF4F11969C932F
:1009B0008E93A689B7892C9181E090E0078C02C0C4
:1009C000880F991F0A94E2F7822B8C9381E081A310
:1009D0000488F589E02D80818064808381E090E047
:1009E000DF91CF911F910F91089508951F920F925B
:1009F0000FB60F9211242F934F935F938F939F9372
:100A0000EF93FF938091C00082FD1CC02091C6002F
:100A10008091DF019091E00101968F7399274091B9
:100A2000E1015091E2018417950771F0E091DF0137
:100A3000F091E001E156FE4F20839093E001809316
:100A4000DF0102C08091C600FF91EF919F918F91CD
:100A50005F914F912F910F900FBE0F901F9018959F
:100A600089E391E00E945C04892B11F00C94F50459
:100A700008951F920F920FB60F9211242F933F9358
:100A80008F939F93EF93FF9320919B0130919C0153
:100A900080919D0190919E012817390731F4809132
:100AA000C1008F7D8093C10014C0E0919D01F09141
:100AB0009E01E55AFE4F208180919D0190919E01FB
:100AC00001968F73992790939E0180939D012093A7
:100AD000C600FF91EF919F918F913F912F910F90C1
:100AE0000FBE0F901F901895CF92DF92EF92FF925A
:100AF0000F931F93CF93DF93EC016A017B014115A4
:100B0000514E6105710509F1EC89FD8981E090E0A4
:100B100008A002C0880F991F0A94E2F7808360E062
:100B200079E08DE390E0A70196010E946B078901AF
:100B30009A01015011092109310936952795179518
:100B40000795980101151041A8F0EC89FD891082E4
:100B500060E874E88EE190E0A70196010E946B07BF
:100B6000DA01C9010197A109B109B695A795979531
:100B700087959C01E889F9893083EA89FB8920837C
:100B800019A2EE89FF89408181E090E09C010C8CE4
:100B900002C0220F331F0A94E2F7242B2083EE8930
:100BA000FF8940819C010D8C02C0220F331F0A94E3
:100BB000E2F7242B2083EE89FF8940819C010E8C73
:100BC00002C0220F331F0A94E2F7242B2083EE8900
:100BD000FF8920810F8C02C0880F991F0A94E2F7C9
:100BE000809582238083DF91CF911F910F91FF9099
:100BF000EF90DF90CF900895E9E3F1E01382128245
:100C000088EE93E0A0E0B0E084839583A683B78369
:100C10008CE191E0918380838FE991E095878487CF
:100C20008BE591E09787868785EC90E0918B808BB0
:100C300084EC90E0938B828B80EC90E0958B848B9E
:100C400081EC90E0978B868B82EC90E0918F808F87
:100C500086EC90E0938F828F84E0848F83E0858F91
:100C600087E0868F85E0878F81E080A30895F894E0
:100C70000C94AD070E9441066894B1110C94F806DB
:100C800008950E94DD0688F09F5798F0B92F9927A4
:100C9000B751B0F0E1F0660F771F881F991F1AF067
:100CA000BA95C9F714C0B13091F00E94F706B1E0CF
:100CB00008950C94F706672F782F8827B85F39F0CE
:100CC000B93FCCF3869577956795B395D9F73EF400
:100CD00090958095709561957F4F8F4F9F4F0895A8
:100CE000E89409C097FB3EF49095809570956195C6
:100CF0007F4F8F4F9F4F9923A9F0F92F96E9BB277C
:100D00009395F695879577956795B795F111F8CFF7
:100D1000FAF4BB0F11F460FF1BC06F5F7F4F8F4F62
:100D20009F4F16C0882311F096E911C0772321F058
:100D30009EE8872F762F05C0662371F096E8862FF0
:100D400070E060E02AF09A95660F771F881FDAF747
:100D5000880F9695879597F9089597F99F6780E88A
:100D600070E060E008959FEF80EC089500240A94FD
:100D70001616170618060906089500240A94121676
:100D80001306140605060895092E0394000C11F4A9
:100D9000882352F0BB0F40F4BF2B11F460FF04C056
:100DA0006F5F7F4F8F4F9F4F089557FD9058440FAF
:100DB000551F59F05F3F71F04795880F97FB991FBA
:100DC00061F09F3F79F08795089512161306140677
:100DD000551FF2CF4695F1DF08C016161706180604
:100DE000991FF1CF86957105610508940895E894DF
:100DF000BB2766277727CB0197F908950E94110733
:100E00000C94C4060E94B60638F00E94BD0620F07D
:100E1000952311F00C94AD060C94B30611240C9498
:100E2000F8060E94D50670F3959FC1F3950F50E028
:100E3000551F629FF001729FBB27F00DB11D639F8C
:100E4000AA27F00DB11DAA1F649F6627B00DA11D32
:100E5000661F829F2227B00DA11D621F739FB00DD8
:100E6000A11D621F839FA00D611D221F749F332748
:100E7000A00D611D231F849F600D211D822F762FE1
:100E80006A2F11249F5750409AF0F1F088234AF0BE
:100E9000EE0FFF1FBB1F661F771F881F915050402A
:100EA000A9F79E3F510580F00C94AD060C94F8060E
:100EB0005F3FE4F3983ED4F3869577956795B795B1
:100EC000F795E7959F5FC1F7FE2B880F911D9695CB
:100ED000879597F90895A1E21A2EAA1BBB1BFD0165
:100EE0000DC0AA1FBB1FEE1FFF1FA217B307E40709
:100EF000F50720F0A21BB30BE40BF50B661F771F61
:100F0000881F991F1A9469F7609570958095909540
:100F10009B01AC01BD01CF0108950E949E07A59FD2
:100F2000900DB49F900DA49F800D911D11240895E4
:100F3000EE0FFF1F0590F491E02D0994A29FB001E0
:100F4000B39FC001A39F700D811D1124911DB29FFD
:0E0F5000700D811D1124911D0895F894FFCF9E
:100F5E00014144432056616C75653A200044697323
:100F6E0074616E63653A200000000000B3042C0328
:080F7E005C0488046C04A80463
:00000001FF
